:100000000C9434000C9446000C9446000C9446006A
:100010000C9446000C9446000C9446000C94460048
:100020000C9446000C9446000C9446000C94460038
:100030000C9446000C9446000C9446000C94460028
:100040000C94E1000C9446000C9446000C9446007D
:100050000C9446000C9446000C9446000C94460008
:100060000C9446000C94460011241FBECFEFD8E03C
:10007000DEBFCDBF21E0A0E0B1E001C01D92A630FF
:10008000B207E1F70E9438010C9473010C94000050
:100090009B01AC0160E874E88EE190E00E945101A0
:1000A000215031093093C5002093C400E0ECF0E00A
:1000B000808182608083E1ECF0E0808188618083D0
:1000C00008959091C00095FFFCCF8093C6000895DD
:1000D0008091C00087FFFCCF8091C60090E008951A
:1000E0002091C00027FF06C02091C600FC0120839C
:1000F00081E0089580E00895CF93DF93EC0189912A
:10010000882319F00E946100FACFDF91CF91089502
:10011000CF93DF939B01FB013496CAE0D0E0BE0190
:100120000E943D01805D8293CB01E217F307B9F78E
:100130001482DF91CF910895CF93DF9300D000D048
:100140001F92CDB7DEB760E072EC81E090E00E94D4
:10015000480080E28AB956985D982AE02A95F1F71E
:1001600000C05D9A85E38A95F1F700005D984E9B8B
:10017000FECF80E090E04E9B06C0019625E02A95D8
:10018000F1F70000F8CF60E370E00E943D01CB0181
:10019000BE016F5F7F4F0E948800CE0101960E94D2
:1001A0007C008DE00E9461008AE00E94610080E096
:1001B00090E00F900F900F900F900F90DF91CF91E4
:1001C00008951F920F920FB60F9211242F933F9311
:1001D0008F939F9387EE86BD8091020190910301DA
:1001E000893E9340F8F420910401309105018091FB
:1001F0000001909101018217930710F45C9A01C0ED
:100200005C98809100019091010101968A309105DE
:1002100029F0909301018093000104C01092010124
:100220001092000180910201909103010196803D9E
:1002300027E0920728F4909303018093020104C001
:1002400010920301109202019F918F913F912F9183
:100250000F900FBE0F901F90189580E18AB983E030
:1002600085BD87EE86BD81E080936E007894089509
:1002700085E090E00E942D01FBCFAA1BBB1B51E142
:1002800007C0AA1FBB1FA617B70710F0A61BB70B06
:10029000881F991F5A95A9F780959095BC01CD01AB
:1002A0000895A1E21A2EAA1BBB1BFD010DC0AA1FB7
:1002B000BB1FEE1FFF1FA217B307E407F50720F0CF
:1002C000A21BB30BE40BF50B661F771F881F991F4A
:1002D0001A9469F760957095809590959B01AC0193
:0A02E000BD01CF010895F894FFCF8F
:00000001FF
