:100000000C9434000C9451000C9451000C94510049
:100010000C9451000C9451000C9451000C9451001C
:100020000C9451000C9451000C9451000C9451000C
:100030000C9451000C9451000C9451000C945100FC
:100040000C948A000C9451000C9451000C945100B3
:100050000C9451000C9451000C9451000C945100DC
:100060000C9451000C94510011241FBECFEFD8E026
:10007000DEBFCDBF11E0A0E0B1E0EAE1F2E002C0F6
:1000800005900D92AC33B107D9F721E0ACE3B1E0B4
:1000900001C01D92A034B207E1F70E94C7000C9482
:1000A0000B010C9400009B01AC0160E874E88EE148
:1000B00090E00E94E900215031093093C50020935F
:1000C000C400E0ECF0E0808182608083E1ECF0E04D
:1000D00080818861808308959091C00095FFFCCF56
:1000E0008093C60008958091C00087FF04C080916E
:1000F000C60090E0089580E090E00895CF93DF93EC
:10010000EC018991882319F00E946C00FACFDF91ED
:10011000CF9108951F920F920FB60F9211242F9333
:100120003F938F939F9387EE86BD80913D018932E7
:10013000B8F420913E0130913F0180913C0190E064
:100140008217930710F45D9A01C05D9880913C017D
:100150008F5F8A3019F080933C0102C010923C01FD
:1001600080913D018F5F80933D01893208F05D9859
:1001700080913D018C3311F410923D019F918F913C
:100180003F912F910F900FBE0F901F90189560E038
:1001900072EC81E090E00E94530080E091E00E94C8
:1001A0007E0080E28AB983E085BD87EE86BD81E06E
:1001B00080936E0078940E94730020ED280F2A30FF
:1001C000D0F730E030933F0120933E010E946C0055
:1001D000F2CFA1E21A2EAA1BBB1BFD010DC0AA1F64
:1001E000BB1FEE1FFF1FA217B307E407F50720F0A0
:1001F000A21BB30BE40BF50B661F771F881F991F1B
:100200001A9469F760957095809590959B01AC0163
:0A021000BD01CF010895F894FFCF5F
:10021A004769622065696E65205A61686C20766F4D
:10022A006E20302D392065696E20756D20646965F0
:10023A002048656C6C69676B6569742065696E7ABC
:0C024A00757374656C6C656E0D0A000025
:00000001FF
