:100000000C9434000C9446000C9446000C9446006A
:100010000C9446000C9446000C9446000C94460048
:100020000C9446000C9446000C9446000C94460038
:100030000C9446000C9446000C9446000C94460028
:100040000C9446000C9446000C9446000C94460018
:100050000C9446000C9446000C9446000C94460008
:100060000C9446000C94460011241FBECFEFD8E03C
:10007000DEBFCDBF21E0A0E0B1E001C01D92A23003
:10008000B207E1F70E949C000C942B010C94000035
:100090009B01AC0160E874E88EE190E00E940901E8
:1000A000215031093093C5002093C400E0ECF0E00A
:1000B000808182608083E1ECF0E0808188618083D0
:1000C00008959091C00095FFFCCF8093C6000895DD
:1000D0008091C00087FFFCCF8091C60090E008951A
:1000E0002091C00027FF06C02091C600FC0120839C
:1000F00081E0089580E00895CF93DF93EC0189912A
:10010000882319F00E946100FACFDF91CF91089502
:10011000CF93DF939B01FB013496CAE0D0E0BE0190
:100120000E94F500805D8293CB01E217F307B9F7D7
:100130001482DF91CF910895CF93DF9300D000D048
:100140001F92CDB7DEB760E072EC81E090E00E94D4
:10015000480080E28AB956985D9800E310E05D9807
:100160008AE08A95F1F700C05D9A95E39A95F1F7D8
:1001700000005D984E9BFECF4E9B0EC0809100010B
:10018000909101010196909301018093000185E017
:100190008A95F1F70000F0CF809100019091010164
:1001A000B8010E94F50070930101609300018091F5
:1001B000000190910101BE016F5F7F4F0E94880096
:1001C000CE0101960E947C008DE00E9461008AE0D1
:1001D0000E94610010920101109200018FE39CE9DE
:1001E0000197F1F700C00000BACFAA1BBB1B51E179
:1001F00007C0AA1FBB1FA617B70710F0A61BB70B97
:10020000881F991F5A95A9F780959095BC01CD013B
:100210000895A1E21A2EAA1BBB1BFD010DC0AA1F47
:10022000BB1FEE1FFF1FA217B307E407F50720F05F
:10023000A21BB30BE40BF50B661F771F881F991FDA
:100240001A9469F760957095809590959B01AC0123
:0A025000BD01CF010895F894FFCF1F
:00000001FF
