:100000000C9434000C9446000C9446000C9446006A
:100010000C9446000C9446000C9446000C94460048
:100020000C9446000C9446000C9446000C94460038
:100030000C9446000C9446000C9446000C94460028
:100040000C949C000C9446000C9446000C944600C2
:100050000C9446000C9446000C9446000C94460008
:100060000C9446000C94460011241FBECFEFD8E03C
:10007000DEBFCDBF21E0A0E0B1E001C01D92A43001
:10008000B207E1F70E94CA000C942A010C94000008
:100090009B01AC0160E874E88EE190E00E940801E9
:1000A000215031093093C5002093C400E0ECF0E00A
:1000B000808182608083E1ECF0E0808188618083D0
:1000C00008959091C00095FFFCCF8093C6000895DD
:1000D0008091C00087FFFCCF8091C60090E008951A
:1000E0002091C00027FF06C02091C600FC0120839C
:1000F00081E0089580E00895CF93DF93EC0189912A
:10010000882319F00E946100FACFDF91CF91089502
:10011000CF93DF939B01FB013496CAE0D0E0BE0190
:100120000E94F400805D8293CB01E217F307B9F7D8
:100130001482DF91CF9108951F920F920FB60F9204
:1001400011248F939F9387EE86BD80910201909139
:100150000301029709F45D988091020190910301D7
:100160000D9709F45D9A80910201909103018197A6
:1001700009F45D988091020190910301019690939A
:100180000301809302019F918F910F900FBE0F90FA
:100190001F901895CF93DF9300D000D01F92CDB75A
:1001A000DEB760E072EC81E090E00E94480080E2FF
:1001B0008AB9569883E085BD87EE86BD81E080933D
:1001C0006E007894BE016F5F7F4F80E090E00E94E8
:1001D0008800CE0101960E947C008DE00E946100A3
:1001E0008AE00E946100EECFAA1BBB1B51E107C051
:1001F000AA1FBB1FA617B70710F0A61BB70B881FB7
:10020000991F5A95A9F780959095BC01CD01089545
:10021000A1E21A2EAA1BBB1BFD010DC0AA1FBB1F0A
:10022000EE1FFF1FA217B307E407F50720F0A21B7C
:10023000B30BE40BF50B661F771F881F991F1A94E9
:1002400069F760957095809590959B01AC01BD0113
:08025000CF010895F894FFCFDF
:00000001FF
