:100000000C9434000C9446000C9446000C9446006A
:100010000C9446000C9446000C9446000C94460048
:100020000C9446000C9446000C9446000C94460038
:100030000C9446000C9446000C9446000C94460028
:100040000C94E5000C9446000C9446000C94460079
:100050000C9446000C9446000C9446000C94460008
:100060000C9446000C94460011241FBECFEFD8E03C
:10007000DEBFCDBF21E0A0E0B1E001C01D92A53000
:10008000B207E1F70E9430010C9477010C94000054
:100090009B01AC0160E874E88EE190E00E9455019C
:1000A000215031093093C5002093C400E0ECF0E00A
:1000B000808182608083E1ECF0E0808188618083D0
:1000C00008959091C00095FFFCCF8093C6000895DD
:1000D0008091C00087FFFCCF8091C60090E008951A
:1000E0002091C00027FF06C02091C600FC0120839C
:1000F00081E0089580E00895CF93DF93EC0189912A
:10010000882319F00E946100FACFDF91CF91089502
:10011000CF93DF939B01FB013496CAE0D0E0BE0190
:100120000E944101805D8293CB01E217F307B9F78A
:100130001482DF91CF9108950F931F93CF93DF9394
:1001400000D000D01F92CDB7DEB760E072EC81E046
:1001500090E00E94480080E28AB956985D982AE0B3
:100160002A95F1F700C05D9A85E38A95F1F70000C2
:100170005D984E9BFECF80E090E04E9B06C00196BE
:1001800025E02A95F1F70000F8CF60E370E00E94C7
:1001900041018B01BE016F5F7F4FC8010E94880043
:1001A000CE0101960E947C008DE00E9461008AE0F1
:1001B0000E946100C8010F900F900F900F900F9058
:1001C000DF91CF911F910F9108951F920F920FB65B
:1001D0000F9211242F933F938F939F9387EE86BDA9
:1001E0008091030190910401893E9340F0F4809145
:1001F000000190E020910101309102012817390798
:1002000010F45C9A01C05C98809101019091020108
:1002100001968A30910529F09093020180930101A3
:1002200004C010920201109201018091030190918B
:1002300004010196803D27E0920728F49093040181
:100240008093030104C010920401109203019F9156
:100250008F913F912F910F900FBE0F901F90189587
:1002600080E18AB983E085BD87EE86BD81E0809319
:100270006E0078948FE39CE90197F1F700C00000CD
:10028000F9CFAA1BBB1B51E107C0AA1FBB1FA617B2
:10029000B70710F0A61BB70B881F991F5A95A9F72F
:1002A00080959095BC01CD010895A1E21A2EAA1B5C
:1002B000BB1BFD010DC0AA1FBB1FEE1FFF1FA21716
:1002C000B307E407F50720F0A21BB30BE40BF50B13
:1002D000661F771F881F991F1A9469F7609570959C
:1002E000809590959B01AC01BD01CF010895F894D4
:0202F000FFCF3E
:00000001FF
