:100000000C9434000C9449000C9449000C94490061
:100010000C9449000C9449000C9449000C9449003C
:100020000C9449000C9449000C9449000C9449002C
:100030000C9449000C9449000C9449000C9449001C
:100040000C9449000C9449000C9449000C9449000C
:100050000C9449000C9449000C9449000C944900FC
:100060000C9449000C94490011241FBECFEFD8E036
:10007000DEBFCDBF11E0A0E0B1E0EEE8F1E002C0EC
:1000800005900D92AE31B107D9F70E9486000C940D
:10009000C5000C940000249A8CB580648CBD089532
:1000A0009091C00095FFFCCF8093C6000895809189
:1000B000C00087FFFCCF8091C6000895CF93DF93E7
:1000C000EC018991882319F00E945000FACFDF914A
:1000D000CF9108950DB407FEFDCF8EB508959B0115
:1000E000AC0160E874E88EE190E00E94A30021502A
:1000F00031093093C5002093C400E0ECF0E080812A
:100100008260808388E18093C100089560E072EC92
:1001100081E090E00E946F0080E091E00E945E002C
:100120000E944B000E944B000E946A00C82F83E18E
:1001300091E00E945E008C2F0E94500080E191E0CF
:100140000E945E00EFCFA1E21A2EAA1BBB1BFD018D
:100150000DC0AA1FBB1FEE1FFF1FA217B307E407A6
:10016000F50720F0A21BB30BE40BF50B661F771FFE
:10017000881F991F1A9469F76095709580959095DE
:0E0180009B01AC01BD01CF010895F894FFCFA3
:10018E00492062696D732064657220536C617665D7
:0E019E000A0D0072656365697665643A0000BB
:00000001FF
